{
  "contractName": "SilverRaptor",
  "abi": [
    {
      "inputs": [],
      "stateMutability": "nonpayable",
      "type": "constructor"
    },
    {
      "anonymous": false,
      "inputs": [
        {
          "indexed": true,
          "internalType": "address",
          "name": "owner",
          "type": "address"
        },
        {
          "indexed": true,
          "internalType": "address",
          "name": "approved",
          "type": "address"
        },
        {
          "indexed": true,
          "internalType": "uint256",
          "name": "tokenId",
          "type": "uint256"
        }
      ],
      "name": "Approval",
      "type": "event"
    },
    {
      "anonymous": false,
      "inputs": [
        {
          "indexed": true,
          "internalType": "address",
          "name": "owner",
          "type": "address"
        },
        {
          "indexed": true,
          "internalType": "address",
          "name": "operator",
          "type": "address"
        },
        {
          "indexed": false,
          "internalType": "bool",
          "name": "approved",
          "type": "bool"
        }
      ],
      "name": "ApprovalForAll",
      "type": "event"
    },
    {
      "anonymous": false,
      "inputs": [
        {
          "indexed": true,
          "internalType": "address",
          "name": "_recipient",
          "type": "address"
        },
        {
          "indexed": false,
          "internalType": "uint8",
          "name": "_tokenId",
          "type": "uint8"
        }
      ],
      "name": "RaptorMinted",
      "type": "event"
    },
    {
      "anonymous": false,
      "inputs": [
        {
          "indexed": true,
          "internalType": "address",
          "name": "from",
          "type": "address"
        },
        {
          "indexed": true,
          "internalType": "address",
          "name": "to",
          "type": "address"
        },
        {
          "indexed": true,
          "internalType": "uint256",
          "name": "tokenId",
          "type": "uint256"
        }
      ],
      "name": "Transfer",
      "type": "event"
    },
    {
      "inputs": [
        {
          "internalType": "address",
          "name": "to",
          "type": "address"
        },
        {
          "internalType": "uint256",
          "name": "tokenId",
          "type": "uint256"
        }
      ],
      "name": "approve",
      "outputs": [],
      "stateMutability": "nonpayable",
      "type": "function"
    },
    {
      "inputs": [
        {
          "internalType": "address",
          "name": "owner",
          "type": "address"
        }
      ],
      "name": "balanceOf",
      "outputs": [
        {
          "internalType": "uint256",
          "name": "",
          "type": "uint256"
        }
      ],
      "stateMutability": "view",
      "type": "function",
      "constant": true
    },
    {
      "inputs": [],
      "name": "baseURI",
      "outputs": [
        {
          "internalType": "string",
          "name": "",
          "type": "string"
        }
      ],
      "stateMutability": "view",
      "type": "function",
      "constant": true
    },
    {
      "inputs": [
        {
          "internalType": "uint256",
          "name": "tokenId",
          "type": "uint256"
        }
      ],
      "name": "getApproved",
      "outputs": [
        {
          "internalType": "address",
          "name": "",
          "type": "address"
        }
      ],
      "stateMutability": "view",
      "type": "function",
      "constant": true
    },
    {
      "inputs": [
        {
          "internalType": "address",
          "name": "owner",
          "type": "address"
        },
        {
          "internalType": "address",
          "name": "operator",
          "type": "address"
        }
      ],
      "name": "isApprovedForAll",
      "outputs": [
        {
          "internalType": "bool",
          "name": "",
          "type": "bool"
        }
      ],
      "stateMutability": "view",
      "type": "function",
      "constant": true
    },
    {
      "inputs": [],
      "name": "name",
      "outputs": [
        {
          "internalType": "string",
          "name": "",
          "type": "string"
        }
      ],
      "stateMutability": "view",
      "type": "function",
      "constant": true
    },
    {
      "inputs": [],
      "name": "owner",
      "outputs": [
        {
          "internalType": "address",
          "name": "",
          "type": "address"
        }
      ],
      "stateMutability": "view",
      "type": "function",
      "constant": true
    },
    {
      "inputs": [
        {
          "internalType": "uint256",
          "name": "tokenId",
          "type": "uint256"
        }
      ],
      "name": "ownerOf",
      "outputs": [
        {
          "internalType": "address",
          "name": "",
          "type": "address"
        }
      ],
      "stateMutability": "view",
      "type": "function",
      "constant": true
    },
    {
      "inputs": [
        {
          "internalType": "address",
          "name": "from",
          "type": "address"
        },
        {
          "internalType": "address",
          "name": "to",
          "type": "address"
        },
        {
          "internalType": "uint256",
          "name": "tokenId",
          "type": "uint256"
        }
      ],
      "name": "safeTransferFrom",
      "outputs": [],
      "stateMutability": "nonpayable",
      "type": "function"
    },
    {
      "inputs": [
        {
          "internalType": "address",
          "name": "from",
          "type": "address"
        },
        {
          "internalType": "address",
          "name": "to",
          "type": "address"
        },
        {
          "internalType": "uint256",
          "name": "tokenId",
          "type": "uint256"
        },
        {
          "internalType": "bytes",
          "name": "_data",
          "type": "bytes"
        }
      ],
      "name": "safeTransferFrom",
      "outputs": [],
      "stateMutability": "nonpayable",
      "type": "function"
    },
    {
      "inputs": [
        {
          "internalType": "address",
          "name": "operator",
          "type": "address"
        },
        {
          "internalType": "bool",
          "name": "approved",
          "type": "bool"
        }
      ],
      "name": "setApprovalForAll",
      "outputs": [],
      "stateMutability": "nonpayable",
      "type": "function"
    },
    {
      "inputs": [
        {
          "internalType": "bytes4",
          "name": "interfaceId",
          "type": "bytes4"
        }
      ],
      "name": "supportsInterface",
      "outputs": [
        {
          "internalType": "bool",
          "name": "",
          "type": "bool"
        }
      ],
      "stateMutability": "view",
      "type": "function",
      "constant": true
    },
    {
      "inputs": [],
      "name": "symbol",
      "outputs": [
        {
          "internalType": "string",
          "name": "",
          "type": "string"
        }
      ],
      "stateMutability": "view",
      "type": "function",
      "constant": true
    },
    {
      "inputs": [
        {
          "internalType": "uint256",
          "name": "index",
          "type": "uint256"
        }
      ],
      "name": "tokenByIndex",
      "outputs": [
        {
          "internalType": "uint256",
          "name": "",
          "type": "uint256"
        }
      ],
      "stateMutability": "view",
      "type": "function",
      "constant": true
    },
    {
      "inputs": [
        {
          "internalType": "address",
          "name": "owner",
          "type": "address"
        },
        {
          "internalType": "uint256",
          "name": "index",
          "type": "uint256"
        }
      ],
      "name": "tokenOfOwnerByIndex",
      "outputs": [
        {
          "internalType": "uint256",
          "name": "",
          "type": "uint256"
        }
      ],
      "stateMutability": "view",
      "type": "function",
      "constant": true
    },
    {
      "inputs": [
        {
          "internalType": "uint256",
          "name": "tokenId",
          "type": "uint256"
        }
      ],
      "name": "tokenURI",
      "outputs": [
        {
          "internalType": "string",
          "name": "",
          "type": "string"
        }
      ],
      "stateMutability": "view",
      "type": "function",
      "constant": true
    },
    {
      "inputs": [],
      "name": "totalSupply",
      "outputs": [
        {
          "internalType": "uint256",
          "name": "",
          "type": "uint256"
        }
      ],
      "stateMutability": "view",
      "type": "function",
      "constant": true
    },
    {
      "inputs": [
        {
          "internalType": "address",
          "name": "from",
          "type": "address"
        },
        {
          "internalType": "address",
          "name": "to",
          "type": "address"
        },
        {
          "internalType": "uint256",
          "name": "tokenId",
          "type": "uint256"
        }
      ],
      "name": "transferFrom",
      "outputs": [],
      "stateMutability": "nonpayable",
      "type": "function"
    },
    {
      "inputs": [
        {
          "internalType": "address",
          "name": "_recipient",
          "type": "address"
        },
        {
          "internalType": "uint8",
          "name": "_tokenId",
          "type": "uint8"
        },
        {
          "internalType": "string",
          "name": "_tokenURI",
          "type": "string"
        }
      ],
      "name": "mintRaptor",
      "outputs": [],
      "stateMutability": "nonpayable",
      "type": "function"
    }
  ],
  "bytecode": "0x60806040523480156200001157600080fd5b506040518060400160405280600c81526020017f53696c766572526170746f7200000000000000000000000000000000000000008152506040518060400160405280600481526020017f5352415000000000000000000000000000000000000000000000000000000000815250620000966301ffc9a760e01b6200019f60201b60201c565b8160069080519060200190620000ae929190620002c4565b508060079080519060200190620000c7929190620002c4565b50620000e06380ac58cd60e01b6200019f60201b60201c565b620000f8635b5e139f60e01b6200019f60201b60201c565b6200011063780e9d6360e01b6200019f60201b60201c565b505033600a60006101000a81548173ffffffffffffffffffffffffffffffffffffffff021916908373ffffffffffffffffffffffffffffffffffffffff160217905550620001996040518060400160405280600781526020017f697066733a2f2f00000000000000000000000000000000000000000000000000815250620002a860201b60201c565b62000373565b63ffffffff60e01b817bffffffffffffffffffffffffffffffffffffffffffffffffffffffff191614156200023c576040517f08c379a000000000000000000000000000000000000000000000000000000000815260040180806020018281038252601c8152602001807f4552433136353a20696e76616c696420696e746572666163652069640000000081525060200191505060405180910390fd5b6001600080837bffffffffffffffffffffffffffffffffffffffffffffffffffffffff19167bffffffffffffffffffffffffffffffffffffffffffffffffffffffff1916815260200190815260200160002060006101000a81548160ff02191690831515021790555050565b8060099080519060200190620002c0929190620002c4565b5050565b828054600181600116156101000203166002900490600052602060002090601f016020900481019282601f106200030757805160ff191683800117855562000338565b8280016001018555821562000338579182015b82811115620003375782518255916020019190600101906200031a565b5b5090506200034791906200034b565b5090565b6200037091905b808211156200036c57600081600090555060010162000352565b5090565b90565b612cf680620003836000396000f3fe608060405234801561001057600080fd5b50600436106101215760003560e01c80635580ffe8116100ad57806395d89b411161007157806395d89b41146106e3578063a22cb46514610766578063b88d4fde146107b6578063c87b56dd146108bb578063e985e9c51461096257610121565b80635580ffe8146104685780636352211e146105505780636c0360eb146105be57806370a08231146106415780638da5cb5b1461069957610121565b806318160ddd116100f457806318160ddd146102ca57806323b872dd146102e85780632f745c591461035657806342842e0e146103b85780634f6ccce71461042657610121565b806301ffc9a71461012657806306fdde031461018b578063081812fc1461020e578063095ea7b31461027c575b600080fd5b6101716004803603602081101561013c57600080fd5b8101908080357bffffffffffffffffffffffffffffffffffffffffffffffffffffffff191690602001909291905050506109de565b604051808215151515815260200191505060405180910390f35b610193610a45565b6040518080602001828103825283818151815260200191508051906020019080838360005b838110156101d35780820151818401526020810190506101b8565b50505050905090810190601f1680156102005780820380516001836020036101000a031916815260200191505b509250505060405180910390f35b61023a6004803603602081101561022457600080fd5b8101908080359060200190929190505050610ae7565b604051808273ffffffffffffffffffffffffffffffffffffffff1673ffffffffffffffffffffffffffffffffffffffff16815260200191505060405180910390f35b6102c86004803603604081101561029257600080fd5b81019080803573ffffffffffffffffffffffffffffffffffffffff16906020019092919080359060200190929190505050610b82565b005b6102d2610cc6565b6040518082815260200191505060405180910390f35b610354600480360360608110156102fe57600080fd5b81019080803573ffffffffffffffffffffffffffffffffffffffff169060200190929190803573ffffffffffffffffffffffffffffffffffffffff16906020019092919080359060200190929190505050610cd7565b005b6103a26004803603604081101561036c57600080fd5b81019080803573ffffffffffffffffffffffffffffffffffffffff16906020019092919080359060200190929190505050610d4d565b6040518082815260200191505060405180910390f35b610424600480360360608110156103ce57600080fd5b81019080803573ffffffffffffffffffffffffffffffffffffffff169060200190929190803573ffffffffffffffffffffffffffffffffffffffff16906020019092919080359060200190929190505050610da8565b005b6104526004803603602081101561043c57600080fd5b8101908080359060200190929190505050610dc8565b6040518082815260200191505060405180910390f35b61054e6004803603606081101561047e57600080fd5b81019080803573ffffffffffffffffffffffffffffffffffffffff169060200190929190803560ff169060200190929190803590602001906401000000008111156104c857600080fd5b8201836020820111156104da57600080fd5b803590602001918460018302840111640100000000831117156104fc57600080fd5b91908080601f016020809104026020016040519081016040528093929190818152602001838380828437600081840152601f19601f820116905080830192505050505050509192919290505050610deb565b005b61057c6004803603602081101561056657600080fd5b8101908080359060200190929190505050610eb5565b604051808273ffffffffffffffffffffffffffffffffffffffff1673ffffffffffffffffffffffffffffffffffffffff16815260200191505060405180910390f35b6105c6610eec565b6040518080602001828103825283818151815260200191508051906020019080838360005b838110156106065780820151818401526020810190506105eb565b50505050905090810190601f1680156106335780820380516001836020036101000a031916815260200191505b509250505060405180910390f35b6106836004803603602081101561065757600080fd5b81019080803573ffffffffffffffffffffffffffffffffffffffff169060200190929190505050610f8e565b6040518082815260200191505060405180910390f35b6106a1611063565b604051808273ffffffffffffffffffffffffffffffffffffffff1673ffffffffffffffffffffffffffffffffffffffff16815260200191505060405180910390f35b6106eb611089565b6040518080602001828103825283818151815260200191508051906020019080838360005b8381101561072b578082015181840152602081019050610710565b50505050905090810190601f1680156107585780820380516001836020036101000a031916815260200191505b509250505060405180910390f35b6107b46004803603604081101561077c57600080fd5b81019080803573ffffffffffffffffffffffffffffffffffffffff16906020019092919080351515906020019092919050505061112b565b005b6108b9600480360360808110156107cc57600080fd5b81019080803573ffffffffffffffffffffffffffffffffffffffff169060200190929190803573ffffffffffffffffffffffffffffffffffffffff169060200190929190803590602001909291908035906020019064010000000081111561083357600080fd5b82018360208201111561084557600080fd5b8035906020019184600183028401116401000000008311171561086757600080fd5b91908080601f016020809104026020016040519081016040528093929190818152602001838380828437600081840152601f19601f8201169050808301925050505050505091929192905050506112e3565b005b6108e7600480360360208110156108d157600080fd5b810190808035906020019092919050505061135b565b6040518080602001828103825283818151815260200191508051906020019080838360005b8381101561092757808201518184015260208101905061090c565b50505050905090810190601f1680156109545780820380516001836020036101000a031916815260200191505b509250505060405180910390f35b6109c46004803603604081101561097857600080fd5b81019080803573ffffffffffffffffffffffffffffffffffffffff169060200190929190803573ffffffffffffffffffffffffffffffffffffffff16906020019092919050505061162c565b604051808215151515815260200191505060405180910390f35b6000806000837bffffffffffffffffffffffffffffffffffffffffffffffffffffffff19167bffffffffffffffffffffffffffffffffffffffffffffffffffffffff1916815260200190815260200160002060009054906101000a900460ff169050919050565b606060068054600181600116156101000203166002900480601f016020809104026020016040519081016040528092919081815260200182805460018160011615610100020316600290048015610add5780601f10610ab257610100808354040283529160200191610add565b820191906000526020600020905b815481529060010190602001808311610ac057829003601f168201915b5050505050905090565b6000610af2826116c0565b610b47576040517f08c379a000000000000000000000000000000000000000000000000000000000815260040180806020018281038252602c815260200180612bbf602c913960400191505060405180910390fd5b6004600083815260200190815260200160002060009054906101000a900473ffffffffffffffffffffffffffffffffffffffff169050919050565b6000610b8d82610eb5565b90508073ffffffffffffffffffffffffffffffffffffffff168373ffffffffffffffffffffffffffffffffffffffff161415610c14576040517f08c379a0000000000000000000000000000000000000000000000000000000008152600401808060200182810382526021815260200180612c6f6021913960400191505060405180910390fd5b8073ffffffffffffffffffffffffffffffffffffffff16610c336116dd565b73ffffffffffffffffffffffffffffffffffffffff161480610c625750610c6181610c5c6116dd565b61162c565b5b610cb7576040517f08c379a0000000000000000000000000000000000000000000000000000000008152600401808060200182810382526038815260200180612b126038913960400191505060405180910390fd5b610cc183836116e5565b505050565b6000610cd2600261179e565b905090565b610ce8610ce26116dd565b826117b3565b610d3d576040517f08c379a0000000000000000000000000000000000000000000000000000000008152600401808060200182810382526031815260200180612c906031913960400191505060405180910390fd5b610d488383836118a7565b505050565b6000610da082600160008673ffffffffffffffffffffffffffffffffffffffff1673ffffffffffffffffffffffffffffffffffffffff168152602001908152602001600020611aea90919063ffffffff16565b905092915050565b610dc3838383604051806020016040528060008152506112e3565b505050565b600080610ddf836002611b0490919063ffffffff16565b50905080915050919050565b600a60009054906101000a900473ffffffffffffffffffffffffffffffffffffffff1673ffffffffffffffffffffffffffffffffffffffff163373ffffffffffffffffffffffffffffffffffffffff161415610eb057610e4e838360ff16611b33565b610e5b8260ff1682611d27565b8273ffffffffffffffffffffffffffffffffffffffff167f90a945d515cabf04f51cfe31fdda3981b591099c7e0d7131d66ed23bc2401d5b83604051808260ff1660ff16815260200191505060405180910390a25b505050565b6000610ee582604051806060016040528060298152602001612b74602991396002611db19092919063ffffffff16565b9050919050565b606060098054600181600116156101000203166002900480601f016020809104026020016040519081016040528092919081815260200182805460018160011615610100020316600290048015610f845780601f10610f5957610100808354040283529160200191610f84565b820191906000526020600020905b815481529060010190602001808311610f6757829003601f168201915b5050505050905090565b60008073ffffffffffffffffffffffffffffffffffffffff168273ffffffffffffffffffffffffffffffffffffffff161415611015576040517f08c379a000000000000000000000000000000000000000000000000000000000815260040180806020018281038252602a815260200180612b4a602a913960400191505060405180910390fd5b61105c600160008473ffffffffffffffffffffffffffffffffffffffff1673ffffffffffffffffffffffffffffffffffffffff168152602001908152602001600020611dd0565b9050919050565b600a60009054906101000a900473ffffffffffffffffffffffffffffffffffffffff1681565b606060078054600181600116156101000203166002900480601f0160208091040260200160405190810160405280929190818152602001828054600181600116156101000203166002900480156111215780601f106110f657610100808354040283529160200191611121565b820191906000526020600020905b81548152906001019060200180831161110457829003601f168201915b5050505050905090565b6111336116dd565b73ffffffffffffffffffffffffffffffffffffffff168273ffffffffffffffffffffffffffffffffffffffff1614156111d4576040517f08c379a00000000000000000000000000000000000000000000000000000000081526004018080602001828103825260198152602001807f4552433732313a20617070726f766520746f2063616c6c65720000000000000081525060200191505060405180910390fd5b80600560006111e16116dd565b73ffffffffffffffffffffffffffffffffffffffff1673ffffffffffffffffffffffffffffffffffffffff16815260200190815260200160002060008473ffffffffffffffffffffffffffffffffffffffff1673ffffffffffffffffffffffffffffffffffffffff16815260200190815260200160002060006101000a81548160ff0219169083151502179055508173ffffffffffffffffffffffffffffffffffffffff1661128e6116dd565b73ffffffffffffffffffffffffffffffffffffffff167f17307eab39ab6107e8899845ad3d59bd9653f200f220920489ca2b5937696c3183604051808215151515815260200191505060405180910390a35050565b6112f46112ee6116dd565b836117b3565b611349576040517f08c379a0000000000000000000000000000000000000000000000000000000008152600401808060200182810382526031815260200180612c906031913960400191505060405180910390fd5b61135584848484611de5565b50505050565b6060611366826116c0565b6113bb576040517f08c379a000000000000000000000000000000000000000000000000000000000815260040180806020018281038252602f815260200180612c40602f913960400191505060405180910390fd5b6060600860008481526020019081526020016000208054600181600116156101000203166002900480601f0160208091040260200160405190810160405280929190818152602001828054600181600116156101000203166002900480156114645780601f1061143957610100808354040283529160200191611464565b820191906000526020600020905b81548152906001019060200180831161144757829003601f168201915b505050505090506060611475610eec565b905060008151141561148b578192505050611627565b60008251111561155c5780826040516020018083805190602001908083835b602083106114cd57805182526020820191506020810190506020830392506114aa565b6001836020036101000a03801982511681845116808217855250505050505090500182805190602001908083835b6020831061151e57805182526020820191506020810190506020830392506114fb565b6001836020036101000a0380198251168184511680821785525050505050509050019250505060405160208183030381529060405292505050611627565b8061156685611e57565b6040516020018083805190602001908083835b6020831061159c5780518252602082019150602081019050602083039250611579565b6001836020036101000a03801982511681845116808217855250505050505090500182805190602001908083835b602083106115ed57805182526020820191506020810190506020830392506115ca565b6001836020036101000a03801982511681845116808217855250505050505090500192505050604051602081830303815290604052925050505b919050565b6000600560008473ffffffffffffffffffffffffffffffffffffffff1673ffffffffffffffffffffffffffffffffffffffff16815260200190815260200160002060008373ffffffffffffffffffffffffffffffffffffffff1673ffffffffffffffffffffffffffffffffffffffff16815260200190815260200160002060009054906101000a900460ff16905092915050565b60006116d6826002611f8790919063ffffffff16565b9050919050565b600033905090565b816004600083815260200190815260200160002060006101000a81548173ffffffffffffffffffffffffffffffffffffffff021916908373ffffffffffffffffffffffffffffffffffffffff160217905550808273ffffffffffffffffffffffffffffffffffffffff1661175883610eb5565b73ffffffffffffffffffffffffffffffffffffffff167f8c5be1e5ebec7d5bd14f71427d1e84f3dd0314c0f7b2291e5b200ac8c7c3b92560405160405180910390a45050565b60006117ac82600001611fa1565b9050919050565b60006117be826116c0565b611813576040517f08c379a000000000000000000000000000000000000000000000000000000000815260040180806020018281038252602c815260200180612ae6602c913960400191505060405180910390fd5b600061181e83610eb5565b90508073ffffffffffffffffffffffffffffffffffffffff168473ffffffffffffffffffffffffffffffffffffffff16148061188d57508373ffffffffffffffffffffffffffffffffffffffff1661187584610ae7565b73ffffffffffffffffffffffffffffffffffffffff16145b8061189e575061189d818561162c565b5b91505092915050565b8273ffffffffffffffffffffffffffffffffffffffff166118c782610eb5565b73ffffffffffffffffffffffffffffffffffffffff1614611933576040517f08c379a0000000000000000000000000000000000000000000000000000000008152600401808060200182810382526029815260200180612c176029913960400191505060405180910390fd5b600073ffffffffffffffffffffffffffffffffffffffff168273ffffffffffffffffffffffffffffffffffffffff1614156119b9576040517f08c379a0000000000000000000000000000000000000000000000000000000008152600401808060200182810382526024815260200180612a9c6024913960400191505060405180910390fd5b6119c4838383611fb2565b6119cf6000826116e5565b611a2081600160008673ffffffffffffffffffffffffffffffffffffffff1673ffffffffffffffffffffffffffffffffffffffff168152602001908152602001600020611fb790919063ffffffff16565b50611a7281600160008573ffffffffffffffffffffffffffffffffffffffff1673ffffffffffffffffffffffffffffffffffffffff168152602001908152602001600020611fd190919063ffffffff16565b50611a8981836002611feb9092919063ffffffff16565b50808273ffffffffffffffffffffffffffffffffffffffff168473ffffffffffffffffffffffffffffffffffffffff167fddf252ad1be2c89b69c2b068fc378daa952ba7f163c4a11628f55a4df523b3ef60405160405180910390a4505050565b6000611af98360000183612020565b60001c905092915050565b600080600080611b1786600001866120a3565b915091508160001c8160001c8090509350935050509250929050565b600073ffffffffffffffffffffffffffffffffffffffff168273ffffffffffffffffffffffffffffffffffffffff161415611bd6576040517f08c379a00000000000000000000000000000000000000000000000000000000081526004018080602001828103825260208152602001807f4552433732313a206d696e7420746f20746865207a65726f206164647265737381525060200191505060405180910390fd5b611bdf816116c0565b15611c52576040517f08c379a000000000000000000000000000000000000000000000000000000000815260040180806020018281038252601c8152602001807f4552433732313a20746f6b656e20616c7265616479206d696e7465640000000081525060200191505060405180910390fd5b611c5e60008383611fb2565b611caf81600160008573ffffffffffffffffffffffffffffffffffffffff1673ffffffffffffffffffffffffffffffffffffffff168152602001908152602001600020611fd190919063ffffffff16565b50611cc681836002611feb9092919063ffffffff16565b50808273ffffffffffffffffffffffffffffffffffffffff16600073ffffffffffffffffffffffffffffffffffffffff167fddf252ad1be2c89b69c2b068fc378daa952ba7f163c4a11628f55a4df523b3ef60405160405180910390a45050565b611d30826116c0565b611d85576040517f08c379a000000000000000000000000000000000000000000000000000000000815260040180806020018281038252602c815260200180612beb602c913960400191505060405180910390fd5b80600860008481526020019081526020016000209080519060200190611dac9291906129a2565b505050565b6000611dc4846000018460001b8461213c565b60001c90509392505050565b6000611dde82600001612232565b9050919050565b611df08484846118a7565b611dfc84848484612243565b611e51576040517f08c379a0000000000000000000000000000000000000000000000000000000008152600401808060200182810382526032815260200180612a6a6032913960400191505060405180910390fd5b50505050565b60606000821415611e9f576040518060400160405280600181526020017f30000000000000000000000000000000000000000000000000000000000000008152509050611f82565b600082905060005b60008214611ec9578080600101915050600a8281611ec157fe5b049150611ea7565b6060816040519080825280601f01601f191660200182016040528015611efe5781602001600182028038833980820191505090505b50905060006001830390508593505b60008414611f7a57600a8481611f1f57fe5b0660300160f81b82828060019003935081518110611f3957fe5b60200101907effffffffffffffffffffffffffffffffffffffffffffffffffffffffffffff1916908160001a905350600a8481611f7257fe5b049350611f0d565b819450505050505b919050565b6000611f99836000018360001b612488565b905092915050565b600081600001805490509050919050565b505050565b6000611fc9836000018360001b6124ab565b905092915050565b6000611fe3836000018360001b612593565b905092915050565b6000612017846000018460001b8473ffffffffffffffffffffffffffffffffffffffff1660001b612603565b90509392505050565b600081836000018054905011612081576040517f08c379a0000000000000000000000000000000000000000000000000000000008152600401808060200182810382526022815260200180612a486022913960400191505060405180910390fd5b82600001828154811061209057fe5b9060005260206000200154905092915050565b60008082846000018054905011612105576040517f08c379a0000000000000000000000000000000000000000000000000000000008152600401808060200182810382526022815260200180612b9d6022913960400191505060405180910390fd5b600084600001848154811061211657fe5b906000526020600020906002020190508060000154816001015492509250509250929050565b60008084600101600085815260200190815260200160002054905060008114158390612203576040517f08c379a00000000000000000000000000000000000000000000000000000000081526004018080602001828103825283818151815260200191508051906020019080838360005b838110156121c85780820151818401526020810190506121ad565b50505050905090810190601f1680156121f55780820380516001836020036101000a031916815260200191505b509250505060405180910390fd5b5084600001600182038154811061221657fe5b9060005260206000209060020201600101549150509392505050565b600081600001805490509050919050565b60006122648473ffffffffffffffffffffffffffffffffffffffff166126df565b6122715760019050612480565b606061240763150b7a0260e01b6122866116dd565b888787604051602401808573ffffffffffffffffffffffffffffffffffffffff1673ffffffffffffffffffffffffffffffffffffffff1681526020018473ffffffffffffffffffffffffffffffffffffffff1673ffffffffffffffffffffffffffffffffffffffff16815260200183815260200180602001828103825283818151815260200191508051906020019080838360005b8381101561233657808201518184015260208101905061231b565b50505050905090810190601f1680156123635780820380516001836020036101000a031916815260200191505b5095505050505050604051602081830303815290604052907bffffffffffffffffffffffffffffffffffffffffffffffffffffffff19166020820180517bffffffffffffffffffffffffffffffffffffffffffffffffffffffff8381831617835250505050604051806060016040528060328152602001612a6a603291398773ffffffffffffffffffffffffffffffffffffffff166126f29092919063ffffffff16565b9050600081806020019051602081101561242057600080fd5b8101908080519060200190929190505050905063150b7a0260e01b7bffffffffffffffffffffffffffffffffffffffffffffffffffffffff1916817bffffffffffffffffffffffffffffffffffffffffffffffffffffffff191614925050505b949350505050565b600080836001016000848152602001908152602001600020541415905092915050565b6000808360010160008481526020019081526020016000205490506000811461258757600060018203905060006001866000018054905003905060008660000182815481106124f657fe5b906000526020600020015490508087600001848154811061251357fe5b906000526020600020018190555060018301876001016000838152602001908152602001600020819055508660000180548061254b57fe5b6001900381819060005260206000200160009055905586600101600087815260200190815260200160002060009055600194505050505061258d565b60009150505b92915050565b600061259f838361270a565b6125f85782600001829080600181540180825580915050600190039060005260206000200160009091909190915055826000018054905083600101600084815260200190815260200160002081905550600190506125fd565b600090505b92915050565b60008084600101600085815260200190815260200160002054905060008114156126aa578460000160405180604001604052808681526020018581525090806001815401808255809150506001900390600052602060002090600202016000909190919091506000820151816000015560208201518160010155505084600001805490508560010160008681526020019081526020016000208190555060019150506126d8565b828560000160018303815481106126bd57fe5b90600052602060002090600202016001018190555060009150505b9392505050565b600080823b905060008111915050919050565b6060612701848460008561272d565b90509392505050565b600080836001016000848152602001908152602001600020541415905092915050565b606082471015612788576040517f08c379a0000000000000000000000000000000000000000000000000000000008152600401808060200182810382526026815260200180612ac06026913960400191505060405180910390fd5b612791856126df565b612803576040517f08c379a000000000000000000000000000000000000000000000000000000000815260040180806020018281038252601d8152602001807f416464726573733a2063616c6c20746f206e6f6e2d636f6e747261637400000081525060200191505060405180910390fd5b600060608673ffffffffffffffffffffffffffffffffffffffff1685876040518082805190602001908083835b602083106128535780518252602082019150602081019050602083039250612830565b6001836020036101000a03801982511681845116808217855250505050505090500191505060006040518083038185875af1925050503d80600081146128b5576040519150601f19603f3d011682016040523d82523d6000602084013e6128ba565b606091505b50915091506128ca8282866128d6565b92505050949350505050565b606083156128e65782905061299b565b6000835111156128f95782518084602001fd5b816040517f08c379a00000000000000000000000000000000000000000000000000000000081526004018080602001828103825283818151815260200191508051906020019080838360005b83811015612960578082015181840152602081019050612945565b50505050905090810190601f16801561298d5780820380516001836020036101000a031916815260200191505b509250505060405180910390fd5b9392505050565b828054600181600116156101000203166002900490600052602060002090601f016020900481019282601f106129e357805160ff1916838001178555612a11565b82800160010185558215612a11579182015b82811115612a105782518255916020019190600101906129f5565b5b509050612a1e9190612a22565b5090565b612a4491905b80821115612a40576000816000905550600101612a28565b5090565b9056fe456e756d657261626c655365743a20696e646578206f7574206f6620626f756e64734552433732313a207472616e7366657220746f206e6f6e20455243373231526563656976657220696d706c656d656e7465724552433732313a207472616e7366657220746f20746865207a65726f2061646472657373416464726573733a20696e73756666696369656e742062616c616e636520666f722063616c6c4552433732313a206f70657261746f7220717565727920666f72206e6f6e6578697374656e7420746f6b656e4552433732313a20617070726f76652063616c6c6572206973206e6f74206f776e6572206e6f7220617070726f76656420666f7220616c6c4552433732313a2062616c616e636520717565727920666f7220746865207a65726f20616464726573734552433732313a206f776e657220717565727920666f72206e6f6e6578697374656e7420746f6b656e456e756d657261626c654d61703a20696e646578206f7574206f6620626f756e64734552433732313a20617070726f76656420717565727920666f72206e6f6e6578697374656e7420746f6b656e4552433732314d657461646174613a2055524920736574206f66206e6f6e6578697374656e7420746f6b656e4552433732313a207472616e73666572206f6620746f6b656e2074686174206973206e6f74206f776e4552433732314d657461646174613a2055524920717565727920666f72206e6f6e6578697374656e7420746f6b656e4552433732313a20617070726f76616c20746f2063757272656e74206f776e65724552433732313a207472616e736665722063616c6c6572206973206e6f74206f776e6572206e6f7220617070726f766564a2646970667358221220ddfe869e0bbd022a7ccf378e99c400ea7e97e41227402e0f3df60cd6a4ecabed64736f6c63430006020033",
  "source": "pragma solidity ^0.6.0;\r\n\r\nimport \"@openzeppelin/contracts/token/ERC721/ERC721.sol\";\r\n\r\ncontract SilverRaptor is ERC721 {\r\n    address public owner;\r\n\r\n    event RaptorMinted(address indexed _recipient, uint8 _tokenId);\r\n\r\n    constructor() public ERC721(\"SilverRaptor\", \"SRAP\") {\r\n        owner = msg.sender;\r\n        _setBaseURI(\"ipfs://\");\r\n    }\r\n\r\n    modifier restricted() {\r\n        if (msg.sender == owner) _;\r\n    }\r\n\r\n    function mintRaptor(\r\n        address _recipient,\r\n        uint8 _tokenId,\r\n        string memory _tokenURI\r\n    ) public restricted {\r\n        _mint(_recipient, _tokenId);\r\n        _setTokenURI(_tokenId, _tokenURI);\r\n        emit RaptorMinted(_recipient, _tokenId);\r\n    }\r\n}\r\n",
  "sourcePath": "C:\\Users\\ariel\\silver_raptors\\contracts\\SilverRaptor.sol",
  "compiler": {
    "name": "solc",
    "version": "0.6.2+commit.bacdbe57.Emscripten.clang"
  },
  "schemaVersion": "3.2.0",
  "updatedAt": "2021-02-27T23:54:13.488Z",
  "networkType": "ethereum",
  "devdoc": {
    "methods": {
      "approve(address,uint256)": {
        "details": "See {IERC721-approve}."
      },
      "balanceOf(address)": {
        "details": "See {IERC721-balanceOf}."
      },
      "baseURI()": {
        "details": "Returns the base URI set via {_setBaseURI}. This will be automatically added as a prefix in {tokenURI} to each token's URI, or to the token ID if no specific URI is set for that token ID."
      },
      "getApproved(uint256)": {
        "details": "See {IERC721-getApproved}."
      },
      "isApprovedForAll(address,address)": {
        "details": "See {IERC721-isApprovedForAll}."
      },
      "name()": {
        "details": "See {IERC721Metadata-name}."
      },
      "ownerOf(uint256)": {
        "details": "See {IERC721-ownerOf}."
      },
      "safeTransferFrom(address,address,uint256)": {
        "details": "See {IERC721-safeTransferFrom}."
      },
      "safeTransferFrom(address,address,uint256,bytes)": {
        "details": "See {IERC721-safeTransferFrom}."
      },
      "setApprovalForAll(address,bool)": {
        "details": "See {IERC721-setApprovalForAll}."
      },
      "supportsInterface(bytes4)": {
        "details": "See {IERC165-supportsInterface}.     * Time complexity O(1), guaranteed to always use less than 30 000 gas."
      },
      "symbol()": {
        "details": "See {IERC721Metadata-symbol}."
      },
      "tokenByIndex(uint256)": {
        "details": "See {IERC721Enumerable-tokenByIndex}."
      },
      "tokenOfOwnerByIndex(address,uint256)": {
        "details": "See {IERC721Enumerable-tokenOfOwnerByIndex}."
      },
      "tokenURI(uint256)": {
        "details": "See {IERC721Metadata-tokenURI}."
      },
      "totalSupply()": {
        "details": "See {IERC721Enumerable-totalSupply}."
      },
      "transferFrom(address,address,uint256)": {
        "details": "See {IERC721-transferFrom}."
      }
    }
  },
  "userdoc": {
    "methods": {}
  }
}